:100000000C9463000C948B000C948B000C948B006C
:100010000C948B000C948B000C948B000C94F812B5
:100020000C948B000C948B000C948B000C948B0024
:100030000C948B000C948B000C948B000C948B0014
:100040000C945F170C948B000C94B6130C9404144E
:100050000C948B000C948B000C948B000C948B00F4
:100060000C948B000C948B000000000024002700EF
:100070002A0000000000250028002B0000000000DE
:1000800023002600290004040404040404040202DA
:100090000202020203030303030301020408102007
:1000A0004080010204081020010204081020000012
:1000B0000007000201000003040600000000000029
:1000C00000002B08701511241FBECFEFD8E0DEBF53
:1000D000CDBF12E0A0E0B1E0E8EEF1E302C0059090
:1000E0000D92AE39B107D9F714E0AEE9B2E001C024
:1000F0001D92AE32B107E1F710E0C6ECD0E004C0CB
:100100002297FE010E94EE18C23CD107C9F70E9457
:10011000C6150C94F2180C940000EF92FF920F9306
:10012000DF93CF93CDB7DEB760970FB6F894DEBFFD
:100130000FBECDBFA82F002309F461C07E01089433
:10014000E11CF11C88E0F70111928A95E9F72983F7
:100150003A834B835C836D837E83AF83988780E291
:10016000801BE82FFF27E7FDF0954D815E816F81B1
:100170007885181684F01D861E861F86188A8827A3
:1001800099278E1B9F0B04C07695679557954795C9
:100190008A95D2F728C0202F332727FD3095DB0121
:1001A000CA01022E04C0B695A795979587950A9423
:1001B000D2F78D879E87AF87B88B04C0440F551F39
:1001C000661F771FEA95D2F789819A81AB81BC813E
:1001D00004C0B695A795979587952A95D2F7482B91
:1001E000592B6A2B7B2B49875A876B877C872985FC
:1001F0003A854B855C856D857E85AF8598898A2F8C
:1002000060960FB6F894DEBF0FBECDBFCF91DF91E1
:100210000F91FF90EF900895EF92FF920F93DF936D
:10022000CF93CDB7DEB760970FB6F894DEBF0FBEA1
:10023000CDBFA82F002309F461C07E010894E11C02
:10024000F11C88E0F70111928A95E9F729833A8336
:100250004B835C836D837E83AF83988780E2801BB2
:10026000E82FFF27E7FDF09549815A816B817C815A
:10027000181684F019861A861B861C8688279927EB
:100280008E1B9F0B04C0440F551F661F771F8A9556
:10029000D2F728C0202F332727FD3095DB01CA0174
:1002A000022E04C0880F991FAA1FBB1F0A94D2F701
:1002B00089879A87AB87BC8704C0769567955795E1
:1002C0004795EA95D2F78D819E81AF81B88504C0AC
:1002D000880F991FAA1FBB1F2A95D2F7482B592BAD
:1002E0006A2B7B2B4D875E876F87788B29853A85B4
:1002F0004B855C856D857E85AF8598898A2F609654
:100300000FB6F894DEBF0FBECDBFCF91DF910F9136
:10031000FF90EF900895A0E0B0E0E1E9F1E00C94E7
:10032000B518DC012B01FA019C91923008F439C117
:10033000EB018881823008F433C1943069F4843051
:1003400009F02FC111969C9111978981981709F492
:1003500028C1A3E8B1E025C1843009F421C182306D
:10036000A9F4923009F01DC19A01AD0188E0EA01BB
:100370000990AE01E90109929E018150C1F7E201A5
:10038000898111969C918923818308C1923009F457
:1003900007C112962D903C901397EB018A819B81A7
:1003A0001496AD90BD90CD90DC901797EC80FD80B9
:1003B0000E811F819101281B390BB90137FF04C041
:1003C00066277727621B730B603271050CF061C0E2
:1003D000121613066CF537014801062E04C09694D8
:1003E0008794779467940A94D2F721E030E040E054
:1003F00050E004C0220F331F441F551F6A95D2F7E7
:1004000021503040404050402E213F214023512375
:10041000211531054105510521F021E030E040E092
:1004200050E079018A01E628F728082919293CC0FB
:10043000232BD1F1260E371E35014601062E04C0AE
:1004400096948794779467940A94D2F721E030E0E9
:1004500040E050E004C0220F331F441F551F6A952F
:10046000D2F721503040404050402A213B214C21BE
:100470005D21211531054105510521F021E030E0D4
:1004800040E050E059016A01A628B728C828D928B9
:100490000BC0821593052CF01C01AA24BB24650116
:1004A00003C0EE24FF24870111969C91D20111967E
:1004B0008C91981709F445C0992339F0A801970148
:1004C0002A193B094C095D0906C0A60195012E19A0
:1004D0003F09400B510B57FD08C011823382228225
:1004E00024833583468357831DC081E08183338213
:1004F000228288279927DC01821B930BA40BB50B62
:1005000084839583A683B7830DC0220F331F441FB6
:10051000551F2483358346835783828193810197B6
:10052000938382832481358146815781DA01C90111
:100530000197A109B1098F5F9F4FAF4FBF4328F3C8
:100540000BC0918333822282EA0CFB1C0C1D1D1D03
:10055000E482F5820683178383E0808324813581DA
:100560004681578157FF1AC0C901AA2797FDA09558
:10057000BA2F81709070A070B070569547953795DE
:100580002795822B932BA42BB52B84839583A6834D
:10059000B78382819381019693838283DF0101C0B7
:1005A000D201CD01CDB7DEB7E2E10C94D118A0E2C3
:1005B000B0E0EDEDF2E00C94C11869837A838B838F
:1005C0009C832D833E834F835887E9E0EE2EF12CE8
:1005D000EC0EFD1ECE010196B7010E945A078E0156
:1005E0000F5E1F4FCE010596B8010E945A078A89F7
:1005F00091E089278A8BC701B801AE01475E5F4F42
:100600000E948B010E948506A096E6E00C94DD18FE
:10061000A0E2B0E0EEE0F3E00C94C11869837A83C5
:100620008B839C832D833E834F835887F9E0EF2E85
:10063000F12CEC0EFD1ECE010196B7010E945A0767
:100640008E010F5E1F4FCE010596B8010E945A071A
:10065000C701B801AE01475E5F4F0E948B010E9447
:100660008506A096E6E00C94DD18A0E2B0E0EBE38E
:10067000F3E00C94B51869837A838B839C832D8374
:100680003E834F835887CE010196BE01675F7F4F3F
:100690000E945A07CE010596BE016F5E7F4F0E94F1
:1006A0005A079985923088F089898230C8F0943051
:1006B00019F4823051F404C0843029F4923081F46A
:1006C00083E891E0C6C0923049F420E09A858A8997
:1006D000981321E02A87CE010996BBC0823049F4E5
:1006E00020E09A858A89981321E02A8BCE014196D1
:1006F000B0C02D843E844F8458886D887E888F8852
:10070000988CEE24FF248701AA24BB24650140E0D5
:1007100050E060E070E0E0E0F0E0C10181709070D6
:10072000892BE9F0E60CF71C081D191D9A01AB0195
:100730002A0D3B1D4C1D5D1D80E090E0A0E0B0E067
:10074000E614F7040805190520F481E090E0A0E024
:10075000B0E0BA01A901480F591F6A1F7B1FAA0CFC
:10076000BB1CCC1CDD1C97FE08C081E090E0A0E023
:10077000B0E0A82AB92ACA2ADB2A3196E032F1056C
:1007800049F0660C771C881C991C56944794379442
:100790002794C3CFFA85EA892B893C898B859C8570
:1007A000280F391F2E5F3F4F17C0CA01817090700C
:1007B000892B61F016950795F794E79480E090E017
:1007C000A0E0B0E8E82AF92A0A2B1B2B769567955A
:1007D000579547952F5F3F4F77FDE7CF0CC0440FEC
:1007E000551F661F771F17FD4160EE0CFF1C001F91
:1007F000111F21503040403090E0590790E06907C8
:1008000090E4790760F32B8F3C8FDB01CA018F776F
:100810009070A070B07080349105A105B10561F4AD
:1008200047FD0AC0E114F1040105110529F0405CFF
:100830005F4F6F4F7F4F40781A8EFE1711F081E0A7
:100840008A8F4D8F5E8F6F8F78A383E0898FCE0163
:1008500049960E948506A096E2E10C94D118A8E181
:10086000B0E0E5E3F4E00C94BD1869837A838B83F0
:100870009C832D833E834F835887B9E0EB2EF12C68
:10088000EC0EFD1ECE010196B7010E945A078E01A3
:100890000F5E1F4FCE010596B8010E945A072985A9
:1008A000223008F47EC03989323010F4B8017CC09F
:1008B0008A859A8989278A87243011F0223031F479
:1008C000231709F06EC063E871E06EC0343039F46C
:1008D0001D861E861F86188A1C861B8604C0323021
:1008E00021F484E08987B7015FC02B853C858B8923
:1008F0009C89281B390B3C872B87ED84FE840F8550
:100900001889AD88BE88CF88D88CEA14FB040C0502
:100910001D0540F4EE0CFF1C001F111F215030403C
:100920003C872B8720E030E040E050E080E090E022
:10093000A0E0B0E460E070E0EA14FB040C051D05E3
:1009400040F0282B392B4A2B5B2BEA18FB080C09AB
:100950001D09B695A79597958795EE0CFF1C001F6E
:10096000111F6F5F7F4F6F31710531F7DA01C901D8
:100970008F779070A070B07080349105A105B1059B
:1009800061F427FD0AC0E114F1040105110529F005
:10099000205C3F4F4F4F5F4F20782D873E874F871A
:1009A000588BBE01675F7F4FCB010E94850668961A
:1009B000EAE00C94D918A8E1B0E0E1EEF4E00C9480
:1009C000C11869837A838B839C832D833E834F83F5
:1009D000588789E0E82EF12CEC0EFD1ECE01019621
:1009E000B7010E945A078E010F5E1F4FCE01059678
:1009F000B8010E945A078985823040F08989823087
:100A000028F0C701B8010E94D20701C081E06896B2
:100A1000E6E00C94DD18A8E0B0E0E1E1F5E00C942C
:100A2000BE189B01AC0183E08983DA01C9018827E4
:100A3000B7FD83959927AA27BB27B82E2115310525
:100A40004105510519F482E089833AC08823A9F051
:100A5000203080E0380780E0480780E8580729F414
:100A600060E070E080E09FEC30C0EE24FF2487015E
:100A7000E21AF30A040B150B02C079018A018EE118
:100A8000C82ED12CDC82CB82ED82FE820F831887A8
:100A9000C801B7010E94360601971816190684F49A
:100AA000082E04C0EE0CFF1C001F111F0A94D2F781
:100AB000ED82FE820F831887C81AD90ADC82CB82A6
:100AC000BA82CE0101960E9485062896E9E00C9430
:100AD000DA18ACE0B0E0EFE6F5E00C94C5186983F5
:100AE0007A838B839C83CE010196BE016B5F7F4F1F
:100AF0000E945A078D81823061F1823050F184303A
:100B000021F48E81882351F12EC02F81388537FD45
:100B100020C06E812F3131051CF06623F9F023C00F
:100B20008EE190E0821B930B29853A854B855C858D
:100B300004C056954795379527958A95D2F7662331
:100B4000B1F050954095309521953F4F4F4F5F4FF5
:100B50000EC020E030E040E050E009C02FEF3FEF52
:100B60004FEF5FE704C020E030E040E050E8B9011B
:100B7000CA012C96E2E00C94E118A8E0B0E0E3ECA6
:100B8000F5E00C94BD187B018C01611571058105A0
:100B9000910519F482E0898360C083E089838EE146
:100BA000C82ED12CDC82CB82ED82FE820F83188787
:100BB000C801B7010E943606FC013197F7FF3BC020
:100BC000222733272E1B3F0B57016801022E04C03A
:100BD000D694C794B794A7940A94D2F740E050E013
:100BE00060E070E081E090E0A0E0B0E004C0880F39
:100BF000991FAA1FBB1F2A95D2F70197A109B10916
:100C00008E219F21A023B1230097A105B10521F0DA
:100C100041E050E060E070E04A295B296C297D29C1
:100C20004D835E836F8378878EE190E08E1B9F0BF0
:100C30009C838B8312C0309781F00E2E04C0EE0C83
:100C4000FF1C001F111F0A94D2F7ED82FE820F8352
:100C50001887CE1ADF0ADC82CB821A82CE01019677
:100C60000E9485062896EAE00C94D918EF92FF922C
:100C70000F931F937B018C0180E0E81680E0F8065B
:100C800081E0080780E0180788F48FEFE816F10488
:100C90000105110531F028F088E090E0A0E0B0E017
:100CA00017C080E090E0A0E0B0E012C080E0E8165D
:100CB00080E0F80680E0080781E0180728F088E166
:100CC00090E0A0E0B0E004C080E190E0A0E0B0E0FF
:100CD00020E230E040E050E0281B390B4A0B5B0B70
:100CE00004C016950795F794E7948A95D2F7F70113
:100CF000E557FE4F8081281B310941095109C9017F
:100D00001F910F91FF90EF900895DF92EF92FF9265
:100D10000F931F93FC01E480F58006811781D18039
:100D20008081823048F480E090E0A0E1B0E0E82AE1
:100D3000F92A0A2B1B2BA5C0843009F49FC08230EE
:100D400021F4EE24FF24870105C0E114F10401051C
:100D5000110519F4E0E0F0E096C0628173819FEF25
:100D6000623879070CF05BC022E83FEF261B370B97
:100D70002A3131052CF020E030E040E050E02AC07C
:100D8000B801A701022E04C076956795579547953F
:100D90000A94D2F781E090E0A0E0B0E004C0880FB0
:100DA000991FAA1FBB1F2A95D2F70197A109B10964
:100DB0008E219F21A023B1230097A105B10521F029
:100DC00081E090E0A0E0B0E09A01AB01282B392B44
:100DD0004A2B5B2BDA01C9018F779070A070B0703D
:100DE00080349105A105B10539F427FF09C0205CC5
:100DF0003F4F4F4F5F4F04C0215C3F4F4F4F5F4FFE
:100E0000E0E0F0E02030A0E03A07A0E04A07A0E4EC
:100E10005A0710F0E1E0F0E079018A0127C060385C
:100E2000710564F5FB01E158FF4FD801C7018F77C9
:100E30009070A070B07080349105A105B10539F4AF
:100E4000E7FE0DC080E490E0A0E0B0E004C08FE3D6
:100E500090E0A0E0B0E0E80EF91E0A1F1B1F17FF8C
:100E600005C016950795F794E794319687E0169597
:100E70000795F794E7948A95D1F705C0EE24FF24EF
:100E80008701EFEFF0E06E2F679566276795902F4B
:100E90009F77D794DD24D7948E2F8695492F462BA4
:100EA000582F5D29B701CA011F910F91FF90EF9054
:100EB000DF900895FC01DB01408151812281622F86
:100EC0006F7770E0221F2227221F9381892F880FBE
:100ED000822B282F30E0991F9927991F11969C93F8
:100EE000119721153105A9F54115510561057105C8
:100EF00011F482E037C082E89FEF13969C938E93A3
:100F000012979A01AB0167E0220F331F441F551F50
:100F10006A95D1F783E08C930DC0220F331F441FD5
:100F2000551F12968D919C911397019713969C9340
:100F30008E931297203080E0380780E0480780E4E5
:100F4000580758F314962D933D934D935C93179740
:100F500008952F3F310579F441155105610571055B
:100F600019F484E08C93089564FF03C081E08C93AE
:100F700012C01C9210C02F57304013963C932E93F2
:100F8000129783E08C9387E0440F551F661F771FED
:100F90008A95D1F7706414964D935D936D937C930D
:100FA000179708951F93DC01FB019C91923008F480
:100FB00047C08081823008F443C0943051F41196C8
:100FC0001C91843099F58181682F70E0611B710953
:100FD0003FC0843021F0923031F48230B9F1818108
:100FE000882389F12DC011961C9111978230F1F060
:100FF00081811817D9F412962D913C911397828113
:1010000093818217930794F028173907BCF0149640
:101010008D919D910D90BC91A02D248135814681AB
:101020005781281739074A075B0718F4112341F045
:101030000AC082179307A407B50740F4112319F0DB
:1010400061E070E005C06FEF7FEF02C060E070E02C
:10105000CB011F91089560918B0270918C028EE9F3
:1010600092E00E94030A08950F931F938C0183E07E
:1010700094E060E071E00E945C17F801808191814A
:101080008230910589F0833091051CF40197D9F4E1
:1010900006C08330910569F00497A9F40FC083E07E
:1010A00094E06CE071E013C083E094E060E171E0F3
:1010B0000EC083E094E065E171E009C083E094E054
:1010C00069E171E004C083E094E06DE171E00E94A9
:1010D0005C171F910F9108957F928F929F92AF920C
:1010E000BF92CF92DF92EF92FF920F931F938EE900
:1010F00092E06FE972E00E946F12892B09F417C128
:101100008091A3029091A402A091A502B091A602A1
:10111000092F1127C02EDD24CD01AA27BB27782E49
:10112000E92EA92EBB24882E992483E094E06AE559
:1011300071E00E945C176091A7027091A80283E0A1
:1011400094E04AE050E00E943D178FE992E00E944F
:10115000340883E094E00E94FF1583E094E061E6A8
:1011600071E00E945C174091A3025091A40260912B
:10117000A5027091A60283E094E022E030E00E9494
:10118000AE1683E094E06AE671E00E945C17C60147
:101190009695982F882797958795001F0027001F01
:1011A000082BC60182709070E5E0880F991FEA95C0
:1011B000E1F7082BC6018470907073E0880F991FC7
:1011C0007A95E1F7082BC60188709070880F991FF7
:1011D000082BC6018071907095958795082BC601E4
:1011E0008072907043E0959587954A95E1F7082BBA
:1011F00080E4C822DD2435E0D594C7943A95E1F720
:101200000C2983E094E0602F40E150E00E94DF165B
:1012100083E094E065E771E00E945C17C501969554
:10122000982F882797958795EE1CEE24EE1CE82AC8
:10123000C5018270907005E0880F991F0A95E1F74B
:10124000E82AC5018470907013E0880F991F1A95E1
:10125000E1F7E82AC50188709070880F991FE82A85
:10126000C5018071907095958795E82AC5018072B7
:101270009070F3E095958795FA95E1F7E82A80E478
:10128000A822BB24E5E0B594A794EA95E1F7EA2803
:10129000FF24C4019695982F882797958795771CEA
:1012A0007724771C782AC4018270907065E0880FDB
:1012B000991F6A95E1F7782AC4018470907053E011
:1012C000880F991F5A95E1F7782AC40188709070A9
:1012D000880F991F782AC401807190709595879521
:1012E000782AC4018072907023E0959587952A959D
:1012F000E1F7782A80E48822992485E09594879400
:101300008A95E1F7972D982980E0E82AF92A83E069
:1013100094E06F2D7E2D40E150E00E94C21683E0E4
:1013200094E00E94FF158EE992E00E94080A1F9146
:101330000F91FF90EF90DF90CF90BF90AF909F9074
:101340008F907F90089583E094E040E855E260E05C
:1013500070E00E943F148EE992E00E949A13089573
:10136000DF92EF92FF920F931F93CF93DF93EC01E5
:10137000882777FD8095982F0E940B057B018C01B3
:1013800020E030E040E45FE30E94350320E030E0FD
:1013900048E452E40E942F040E946905C617D7074B
:1013A00014F4DD241CC0DD24C801B70120E030E0C6
:1013B00040EA5FE30E94350320E030E048E452E475
:1013C0000E942F0420E030E040E85FE30E94080321
:1013D0000E9469056C177D0714F0DD24D3948D2DD0
:1013E00090E0DF91CF911F910F91FF90EF90DF90F0
:1013F00008956C597F4F0E94B0090895645670405B
:101400000E94B00908956093AD021092AF02089552
:1014100082E08093AE0210927A030895AF92BF9259
:10142000CF92DF92EF92FF920F931F93CF93DF93B0
:101430006B01DB011A96CD91DC911B978A819B8110
:1014400068E273E20E94F909892B09F480C0809157
:101450007A03843009F08CC08C819D816AEC78E03D
:101460000E94FE09892B09F483C08E819F8160E36D
:1014700072E00E94F909892B09F47AC0F6011186FD
:1014800010868FEF9FEFAFEFBFEF84839583A68326
:10149000B78381E090E09183808354C08C819D81EB
:1014A00064E971E10E94FE09892B09F450C0269677
:1014B000EE24FF24870123E0A22EB12C888199819C
:1014C00060E372E00E94F909892B09F440C08A8127
:1014D0009B8160E476E00E94FE09892B69F0EE0CA6
:1014E000FF1C001F111F81E090E0A0E0B0E0E82A9F
:1014F000F92A0A2B1B2B0CC08A819B8160E372E0C6
:101500000E94FE09892B19F1EE0CFF1C001F111F10
:10151000249691E4A916B10429F0A2E0B0E0AA0E45
:10152000BB1ECCCF80E290E0F60191878087D60188
:101530001496ED92FD920D931C93179781E090E025
:101540008D939C9321E030E040E050E004C020E027
:1015500030E040E050E0B901CA01DF91CF911F9126
:101560000F91FF90EF90DF90CF90BF90AF900895D4
:1015700080917A03843458F391CFAF92BF92CF9287
:10158000DF92EF92FF920F931F93CF93DF936B0144
:1015900080917A038A3108F480C0DB011A96CD91DC
:1015A000DC911B9788819981845F914080F4FB01D5
:1015B000118610868FEF9FEFAFEFBFEF8483958387
:1015C000A683B78389E090E09183808361C08A819C
:1015D0009B8160E679E00E94F909892B09F45DC0DE
:1015E0002696EE24FF24870162E0A62EB12C30C09F
:1015F000229788819981229668E572E00E94FE090F
:10160000892B79F18881998160EB74E00E94F90956
:10161000892B69F0EE0CFF1C001F111F81E090E088
:10162000A0E0B0E0E82AF92A0A2B1B2B0CC0888125
:10163000998168E572E00E94F909892B71F1EE0C3D
:10164000FF1C001F111FA2E0B0E0AA0EBB1E2496D3
:1016500080917A0395012F5F3F4F90E0281739075B
:101660003CF2C501019795958795F6019187808792
:101670000C971CF41186108610C0D6011496ED92BA
:10168000FD920D931C93179782E090E08D939C93AD
:1016900021E030E040E050E004C020E030E040E0F5
:1016A00050E0B901CA01DF91CF911F910F91FF90D6
:1016B000EF90DF90CF90BF90AF900895AF92BF9220
:1016C000CF92DF92EF92FF920F931F93CF93DF930E
:1016D0006B0180917A038A3108F489C0DB011A9684
:1016E000CD91DC911B97888199818052934080F441
:1016F000FB01118610868FEF9FEFAFEFBFEF848362
:101700009583A683B78389E090E0918380836AC044
:101710008A819B816CEA7DE00E94F909892B09F49A
:1017200066C08C819D816CEA7DE00E94F909892B5D
:1017300009F45DC02896EE24FF248701A3E0AA2EB9
:10174000B12C30C0229788819981229666EB73E094
:101750000E94FE09892B79F18881998160E679E000
:101760000E94F909892B69F0EE0CFF1C001F111F64
:1017700081E090E0A0E0B0E0E82AF92A0A2B1B2BD8
:101780000CC0888199816CEB72E00E94F909892B69
:1017900071F1EE0CFF1C001F111FA2E0B0E0AA0EB9
:1017A000BB1E249680917A0395012F5F3F4F90E0F6
:1017B000281739073CF2C501019795958795F601E1
:1017C000918780870C971CF41186108610C0D60173
:1017D0001496ED92FD920D931C93179789E090E07B
:1017E0008D939C9321E030E040E050E004C020E085
:1017F00030E040E050E0B901CA01DF91CF911F9184
:101800000F91FF90EF90DF90CF90BF90AF90089531
:101810006F927F928F929F92AF92BF92CF92DF9200
:10182000EF92FF920F931F93CF93DF934B01809121
:101830007A03823208F47AC0DB011A96CD91DC91EA
:101840001B978A819B816EE571E00E94F909892BC3
:1018500009F46CC036E0A32EB12CAC0EBD1E22E004
:10186000C22ED12CEE24FF24870137C0E501229738
:10187000888199816EE977E00E94F909892B69F0E6
:10188000EE0CFF1C001F111F81E090E0A0E0B0E013
:10189000E82AF92A0A2B1B2B0DC0888199816EEE4C
:1018A00072E00E94F909892B09F440C0EE0CFF1C7C
:1018B000001F111FD5018D919C916EE571E00E9472
:1018C000FE09E4E0F0E0AE0EBF1E892B11F46301C7
:1018D0000FC022E030E0C20ED31E36010894611C16
:1018E000711C80917A0390E0681679060CF4BECFE3
:1018F000C601019795958795D40119969C938E936F
:10190000189740972CF419961C921E9218970EC0A7
:10191000F401E482F582068317838AE090E09183E4
:10192000808321E030E040E050E004C020E030E07F
:1019300040E050E0B901CA01DF91CF911F910F91B2
:10194000FF90EF90DF90CF90BF90AF909F908F90DF
:101950007F906F9008956F927F928F929F92AF9237
:10196000BF92CF92DF92EF92FF920F931F93CF938C
:10197000DF93FB013A0159016801DA012D913C9195
:10198000848595852817390724F071E0E72EF12C1E
:1019900056C0C901880F991F0284F385E02DE80F16
:1019A000F91F80819181982E892E20FD06C00CE9B7
:1019B0001FEF51E0E52EF12C04C004E610E0EE2408
:1019C000FF24B8016C0D7D1D892D982D0E94B00952
:1019D000892B19F021E030E020C0E601CC0FDD1F9B
:1019E000B8016C0F7D1F892D982D0E94B009892B9D
:1019F00019F022E030E011C0CC0DDD1D0C0F1D1FD1
:101A0000892D982DB8010E94B009892B21F4EE246C
:101A1000EA94FE2C14C023E030E0F501808191812E
:101A2000019691838083821793074CF01182108274
:101A3000D3018D919C91119701968D939C93C70131
:101A4000DF91CF911F910F91FF90EF90DF90CF909A
:101A5000BF90AF909F908F907F906F9008952F923E
:101A60003F924F925F926F927F928F929F92AF922E
:101A7000BF92CF92DF92EF92FF920F931F93DF936B
:101A8000CF9300D000D000D0CDB7DEB71C015B01F2
:101A900080917A038D3008F47EC081E090E09A83D3
:101AA00089831C821B82A3E08A2E912C8C0E9D1EA2
:101AB000C1012E010894411C511CA201940109E7A7
:101AC00013E00E94AB0C892B09F065C0C101B50180
:101AD000A20194010E94AB0C019709F05CC0C10106
:101AE000B501A20194010E94AB0C892B09F053C0EF
:101AF000CC24DD24760166247724C4018D829E8364
:101B00002FC0C101B501A2012D813E8109E713E07B
:101B10000E94AB0C4C01C101B501A2012D813E8197
:101B20000E94AB0C21E08216910479F4892B99F57F
:101B3000CC0CDD1CEE1CFF1C81E090E0A0E0B0E0CE
:101B4000C82AD92AEA2AFB2A08C0892821F5019740
:101B500011F5CC0CDD1CEE1CFF1C0894611C711CE3
:101B600080917A0390E029813A81281739074CF255
:101B7000D50119967C926E921897F501C482D58290
:101B8000E682F78283E090E09183808321E030E079
:101B900040E050E004C020E030E040E050E0B90117
:101BA000CA0126960FB6F894DEBF0FBECDBFCF9107
:101BB000DF911F910F91FF90EF90DF90CF90BF903A
:101BC000AF909F908F907F906F905F904F903F90DD
:101BD0002F9008952F923F924F925F926F927F9233
:101BE0008F929F92AF92BF92CF92DF92EF92FF922D
:101BF0000F931F93DF93CF93CDB7DEB728970FB620
:101C0000F894DEBF0FBECDBF1C014B01DB011C965B
:101C10008D919C911D97181619060CF0C4C081E097
:101C200090E09A8389831A960D911C911B97F80175
:101C3000828193816AE67AE00E94F909892B09F48E
:101C4000B2C082E090E09A838983D80114968D9186
:101C50009C91159769E773E00E94FE09892B09F4AE
:101C6000A2C083E090E09A8389831C821B8203E0F8
:101C7000A02EB12CAC0EBD1EC101B4013E010894D2
:101C8000611C711CA30195010CEB11E00E94AB0CCF
:101C9000892B09F088C0C101B401A30195010E94FC
:101CA000AB0C019709F07FC0CC24DD2476014424DD
:101CB0005524C501AD829E83C3016F82988756C0AB
:101CC000C101B4014F8158852D813E810CEB11E09B
:101CD0000E94AB0C3C01B3E04B16510461F4C1010E
:101CE000B4014F8158852D813E810E94AB0C68164E
:101CF000790609F058C0C101B4014F8158852D8182
:101D00003E810CEB11E00E94AB0C5C01E3E04E164F
:101D1000510459F4C101B4014F8158852D813E8190
:101D20000E94AB0CA816B906F1F56114710489F490
:101D3000F1E0AF16B104B9F5CC0CDD1CEE1CFF1CB4
:101D400081E090E0A0E0B0E0C82AD92AEA2AFB2A84
:101D50000AC091E06916710431F5AB2821F5CC0C6D
:101D6000DD1CEE1CFF1C0894411C511C29813A818A
:101D7000D4011C968D919C911D97281739070CF45E
:101D80009FCF19965C924E921897F401C482D58227
:101D9000E682F78284E090E09183808321E030E066
:101DA00040E050E004C020E030E040E050E0B90105
:101DB000CA0128960FB6F894DEBF0FBECDBFCF91F3
:101DC000DF911F910F91FF90EF90DF90CF90BF9028
:101DD000AF909F908F907F906F905F904F903F90CB
:101DE0002F9008956F927F928F929F92AF92BF92A1
:101DF000CF92DF92EF92FF920F931F93CF93DF93D7
:101E00007B01FB01C285D3858A819B816EEA7DE0DF
:101E10000E94F909892B09F474C08C819D8166EDBB
:101E200076E00E94F909892B09F46BC0269600E040
:101E300010E0DD24CC24992488247724662483E0D0
:101E4000A82EB12C8881998166EF71E00E94F90972
:101E5000892B09F456C08A819B816CED74E00E9445
:101E6000FE09892B69F098014D2D5C2D692D782D87
:101E7000872D962D01E00E940C01022F016013C0F6
:101E80008A819B8160E971E00E94FE09892BC9F17A
:101E900098014D2D5C2D692D782D872D962D01E013
:101EA0000E940C01022F132FD42EC52E962E872EA2
:101EB000782E692E2496F1E6AF16B10429F082E05F
:101EC00090E0A80EB91EBECFC801F7010483958328
:101ED000468357839801872D962D00E20E948D003E
:101EE000C901F7012283938387E090E09183808387
:101EF00080E390E09187808721E030E040E050E08F
:101F000004C020E030E040E050E0B901CA01DF91B8
:101F1000CF911F910F91FF90EF90DF90CF90BF90E6
:101F2000AF909F908F907F906F9008958F929F9227
:101F3000AF92BF92CF92DF92EF92FF920F931F93D7
:101F4000CF93DF934B01DB011A96CD90DC901B976A
:101F5000F6018281938160E47FE10E94F909892B77
:101F600009F46EC080917A03893308F469C0D60100
:101F700014968D919C91159760EA7FE00E94FE096E
:101F8000892B09F45DC0E6012696EE24FF24870123
:101F900033E0A32EB12C8881998168E572E00E941C
:101FA000F909892B09F44CC08A819B8160E476E0B1
:101FB0000E94FE09892B69F0EE0CFF1C001F111F07
:101FC00081E090E0A0E0B0E0E82AF92A0A2B1B2B80
:101FD0000CC08A819B8166E272E00E94FE09892B17
:101FE00079F1EE0CFF1C001F111FA2E0B0E0AA0E59
:101FF000BB1E2496BBE3AB16B10469F6E6E7F0E03E
:10200000CE0EDF1ED6018D919C9168E572E00E9494
:10201000F909892BA9F08CE190E0F4019187808780
:10202000D4011496ED92FD920D931C9317978CE0BA
:1020300090E08D939C9321E030E040E050E004C0BC
:1020400020E030E040E050E0B901CA01DF91CF91DB
:102050001F910F91FF90EF90DF90CF90BF90AF90C6
:102060009F908F9008958F929F92AF92BF92CF9240
:10207000DF92EF92FF920F931F93CF93DF936B0149
:1020800080917A03823209F0B2C0DB011A96CD91B9
:10209000DC911B978A819B8168E572E00E94F909B7
:1020A000892B09F4A4C080917A0321E030E0281B39
:1020B0003109220F331FC21BD30B8881998168E538
:1020C00072E00E94F909892B09F491C0F60111868A
:1020D00010868FEF9FEFAFEFBFEF84839583A683CA
:1020E000B78388E090E09183808369C080917A0310
:1020F000813208F469C0D50114968D919C91159791
:1021000060EA7FE00E94FE09892B09F45DC0E501C9
:102110002696EE24FF24870163E0862E912C888189
:10212000998168E572E00E94F909892B09F44CC095
:102130008A819B8160E476E00E94FE09892B69F028
:10214000EE0CFF1C001F111F81E090E0A0E0B0E04A
:10215000E82AF92A0A2B1B2B0CC08A819B8166E294
:1021600072E00E94FE09892B79F1EE0CFF1C001F22
:10217000111FA2E0B0E08A0E9B1E2496B3E28B16DC
:10218000910469F6E6E4F0E0AE0EBF1ED5018D9134
:102190009C9168E572E00E94F909892BA9F080E121
:1021A00090E0F60191878087D6011496ED92FD921A
:1021B0000D931C93179788E090E08D939C9321E0FA
:1021C00030E040E050E004C020E030E040E050E08B
:1021D000B901CA01DF91CF911F910F91FF90EF904C
:1021E000DF90CF90BF90AF909F908F900895F601B1
:1021F000A284B384D50112968D919C91139760E4CB
:102200007FE10E94F909892B09F070CFDDCFAF92F1
:10221000BF92CF92DF92EF92FF920F931F93CF93D3
:10222000DF936B01DB011A96CD91DC911B978A81BC
:102230009B8168E873E10E94F909892B09F480C049
:1022400080917A03843009F08CC08C819D816AEC86
:1022500078E00E94FE09892B09F483C08E819F815A
:1022600060E372E00E94F909892B09F47AC0F60153
:10227000118610868FEF9FEFAFEFBFEF84839583BA
:10228000A683B7838BE090E09183808354C08C81D8
:102290009D8168E873E10E94FE09892B09F450C012
:1022A0002696EE24FF248701A3E0AA2EB12C888174
:1022B000998160E372E00E94F909892B09F440C01A
:1022C0008A819B8160E476E00E94FE09892B69F097
:1022D000EE0CFF1C001F111F81E090E0A0E0B0E0B9
:1022E000E82AF92A0A2B1B2B0CC08A819B8160E308
:1022F00072E00E94FE09892B19F1EE0CFF1C001FF1
:10230000111F249691E4A916B10429F0A2E0B0E0CF
:10231000AA0EBB1ECCCF80E290E0F60191878087A9
:10232000D6011496ED92FD920D931C9317978BE0B6
:1023300090E08D939C9321E030E040E050E004C0B9
:1023400020E030E040E050E0B901CA01DF91CF91D8
:102350001F910F91FF90EF90DF90CF90BF90AF90C3
:10236000089580917A03843458F391CF2F923F924D
:102370004F925F926F927F928F929F92AF92BF9295
:10238000CF92DF92EF92FF920F931F93DF93CF9341
:1023900000D0CDB7DEB71B01FB0184859585863063
:1023A00091052CF420E030E040E050E081C035ECB5
:1023B000A32E3DE9B32E3CE1C32E31E8D32E26E017
:1023C000422E512C9C01220F331F3A83298359C07E
:1023D000F101A285B385F2013497EA0FFB1FE0807B
:1023E000F180A40DB51D6D917C9180E090E00E947C
:1023F000BD053B014C0100E010E0C801B7010E949F
:10240000BD057B018C012DEC3CEC4CE45FE30E94AC
:1024100035039B01AC01C401B3010E94DB04882396
:102420001CF400E010E018C0C401B3012DEC3CEC3A
:102430004CE45FE30E9435039B01AC01C801B70186
:102440000E94DB04082F112707FD10950027110FAC
:10245000001F11270F5F1F4FC601B50123E931E0AF
:1024600040E051E00E9474185801CC24B7FCC0949D
:10247000DC2CA626B726C826D92622E030E0420E5C
:10248000531E89819A814816590609F0A1CFF1019E
:10249000A482B582C682D78280E290E0918780874D
:1024A0008FEF9FEF9183808321E030E040E050E0A8
:1024B000B901CA010F900F90CF91DF911F910F9139
:1024C000FF90EF90DF90CF90BF90AF909F908F9054
:1024D0007F906F905F904F903F902F9008950F9353
:1024E0001F93CF93DF938C01EB0182EB92E09B87EC
:1024F0008A8780917A038C871D868091AE02853011
:1025000009F06BC0C8010E940E0A611571058105B2
:10251000910509F065C0C801BE010E94BD0A6115A0
:1025200071058105910509F05BC0C801BE010E94DB
:102530005E0B611571058105910509F051C0C80157
:10254000BE010E94080C611571058105910509F015
:1025500047C0C801BE010E942F0D6115710581059C
:102560009105F1F5C801BE010E94EA0D61157105E2
:1025700081059105A9F5C801BE010E94F20E611501
:1025800071058105910561F5C801BE010E94960F94
:10259000611571058105910519F5C801BE010E94FB
:1025A00033106115710581059105D1F4C801BE0193
:1025B0000E940711611571058105910589F4C80113
:1025C000BE010E94B611611571058105910541F4A6
:1025D00082E08093AE0210927A0320E030E002C0E5
:1025E00021E030E0C901DF91CF911F910F91089553
:1025F0001F920F920FB60F9211242F933F934F9378
:102600005F936F937F938F939F93AF93BF93EF935A
:10261000FF938091AD020E942118482F8091B00253
:102620009091B10201969093B1028093B002809193
:102630007A03843618F085E08093AE028091AE0272
:102640008330D1F0843020F4823009F059C006C0C4
:10265000843071F1853009F053C04CC0442309F037
:102660004FC08091B0029091B1028436910508F478
:1026700043C010927A031EC0413009F041C08091DE
:102680007A03E82FF0E02091B0023091B102EE0F12
:10269000FF1FE355FD4F368325838F5F80937A03B9
:1026A0001092B1021092B00284E08093AE0228C072
:1026B0004423B9F480917A03E82FF0E02091B0022E
:1026C0003091B102EE0FFF1FE355FD4F3683258396
:1026D0008F5F80937A031092B1021092B00283E070
:1026E000E4CF8091B0029091B1028536910540F01F
:1026F00085E0DBCF442321F41092B1021092B002A6
:102700008091AF02882329F0442311F42D9A01C04F
:102710002D98FF91EF91BF91AF919F918F917F91F4
:102720006F915F914F913F912F910F900FBE0F903E
:102730001F901895F89492E09093B0009093B10098
:1027400084E68093B300E2EBF0E01082E0819093A6
:102750007000789482E08093AE0210927A038091A8
:10276000AD0260E00E94E217089508951F920F9253
:102770000FB60F9211242F933F934F938F939F93F4
:10278000EF93FF938091C00082FD1DC04091C60071
:102790002091BB033091BC032F5F3F4F2F733070EC
:1027A0008091BD039091BE032817390771F0E09125
:1027B000BB03F091BC03E558FC4F40833093BC034E
:1027C0002093BB0302C08091C600FF91EF919F91BF
:1027D0008F914F913F912F910F900FBE0F901F90AF
:1027E0001895E0910F04F0911004E05CFF4F819187
:1027F000919120813181821B930B8F739070892B73
:1028000011F00E94B51308951F920F920FB60F9208
:1028100011242F933F938F939F93EF93FF932091D6
:10282000FF03309100048091010490910204281765
:10283000390731F48091C1008F7D8093C10014C0AD
:10284000E0910104F0910204E154FC4F2081809159
:1028500001049091020401968F739070909302048A
:10286000809301042093C600FF91EF919F918F9177
:102870003F912F910F900FBE0F901F901895AF9220
:10288000BF92DF92EF92FF920F931F93CF93DF934C
:10289000EC017A018B01DD24403081EE580780E0A5
:1028A000680780E0780711F0DD24D39491E0A92E29
:1028B000B12CEC89FD89DD2069F0C50108A002C0BA
:1028C000880F991F0A94E2F7808360E079E08DE336
:1028D00090E005C0108260E874E88EE190E0A80105
:1028E00097010E9493182150304040405040569527
:1028F00047953795279580E12030380720F0DD2077
:1029000011F0DD24D6CFE889F9893083EA89FB8983
:10291000208319A2EE89FF89408121E030E0C901BE
:102920000C8C02C0880F991F0A94E2F7482B408351
:10293000EE89FF894081C9010D8C02C0880F991F63
:102940000A94E2F7482B4083EE89FF894081C90150
:102950000E8C02C0880F991F0A94E2F7482B40831F
:10296000EE89FF8980810F8C02C0220F331F0A94E9
:10297000E2F7209528232083DF91CF911F910F91BB
:10298000FF90EF90DF90BF90AF900895DC011C9610
:10299000ED91FC911D97E05CFF4F21913191808179
:1029A0009181281B390B2F733070C9010895DC0108
:1029B0001C96ED91FC911D97E05CFF4F20813181C9
:1029C000E054F040DF01AE5BBF4F8D919C911197B9
:1029D0002817390719F42FEF3FEF07C08D919C910D
:1029E000E80FF91F8081282F30E0C9010895DC012C
:1029F0001C96ED91FC911D97E05CFF4F2081318189
:102A0000E054F040DF01AE5BBF4F8D919C91119778
:102A10002817390719F42FEF3FEF10C08D919C91C3
:102A20001197E80FF91F20818D919C9111970196C4
:102A30008F73907011969C938E9330E0C901089526
:102A4000DC0191968C919197882339F05496ED9101
:102A5000FC915597808186FFF9CF91961C9208953D
:102A6000CF93DF93EC01EE85FF85E05CFF4F208183
:102A70003181E054F0402F5F3F4F2F733070DF0102
:102A8000AE5BBF4F8D919C91119728173907D1F3F9
:102A9000E05CFF4F80819181E054F040E80FF91F26
:102AA0006083EE85FF85E05CFF4F31832083EE89F4
:102AB000FF89208181E090E00F8C02C0880F991F70
:102AC0000A94E2F7282B208381E089A3EC89FD8911
:102AD00080818064808381E090E0DF91CF910895D0
:102AE000109206041092050488EE93E0A0E0B0E096
:102AF0008093070490930804A0930904B0930A04F8
:102B000081E992E090930404809303048BE793E0BF
:102B10009093100480930F048FEB93E09093120432
:102B20008093110485EC90E0909314048093130437
:102B300084EC90E0909316048093150480EC90E070
:102B4000909318048093170481EC90E090931A04FA
:102B50008093190482EC90E090931C0480931B04F2
:102B600086EC90E090931E0480931D0484E0809393
:102B70001F0483E08093200487E08093210485E094
:102B80008093220481E0809323040895CF93DF9300
:102B90000E94A7170E94A309C1EFD3E10E946C080D
:102BA0002097E1F30E94F113F9CFCF92DF92EF92D9
:102BB000FF920F931F93CF93DF937C016B018A01E8
:102BC000C0E0D0E00FC0D6016D916D01D701ED914D
:102BD000FC910190F081E02DC7010995C80FD91F24
:102BE000015010400115110571F7CE01DF91CF9111
:102BF0001F910F91FF90EF90DF90CF900895EF928B
:102C0000FF920F931F938C01DC01ED91FC910190D9
:102C1000F081E02D6DE009957C01D801ED91FC91EA
:102C20000190F081E02DC8016AE009959C012E0D0C
:102C30003F1DC9011F910F91FF90EF900895CF9311
:102C4000DF93EC016115710519F420E030E00FC04D
:102C5000DB010D900020E9F71197A61BB70BE88167
:102C6000F9810280F381E02DAD0109959C01C90134
:102C7000DF91CF9108954F925F927F928F929F92B2
:102C8000AF92BF92CF92DF92EF92FF920F931F937A
:102C9000DF93CF93CDB7DEB7A1970FB6F894DEBF21
:102CA0000FBECDBF2C01742ECB01223008F42AE0D8
:102CB00019A231E2C32ED12CCC0EDD1E822E992416
:102CC000AA24BB24672D752FA50194010E94931897
:102CD00079018A01C801B701A50194010E94741805
:102CE000472D461B0894C108D1084A3014F4405DB2
:102CF00001C0495CF6014083E114F10401051105AE
:102D000021F07E2C5F2DC801DDCFC201B6010E94EB
:102D10001F16A1960FB6F894DEBF0FBECDBFCF91A0
:102D2000DF911F910F91FF90EF90DF90CF90BF90B8
:102D3000AF909F908F907F905F904F900895DC01AF
:102D40002115310541F4ED91FC910190F081E02DC8
:102D5000642F099508950E943B160895EF92FF9203
:102D60000F931F937C010E949F168C01C7010E9444
:102D7000FF159C01200F311FC9011F910F91FF907A
:102D8000EF900895CF92DF92EF92FF920F931F93EF
:102D90006C017B019A0100E010E0B801A7010E94DC
:102DA0009F168C01C6010E94FF15080F191FC8014C
:102DB0001F910F91FF90EF90DF90CF900895CF92E9
:102DC000DF92EF92FF920F931F936C01E62E9A0110
:102DD000FF2400E010E0B801A7010E949F168C01BB
:102DE000C6010E94FF15080F191FC8011F910F91FE
:102DF000FF90EF90DF90CF900895CF92DF92EF9207
:102E0000FF920F931F93CF93DF93EC016A017B0135
:102E10002115310541F4E881F9810190F081E02D1F
:102E2000642F09951FC02A303105D1F477FF17C0F0
:102E3000E881F9810190F081E02D6DE209958C0126
:102E400044275527BA014C195D096E097F09CE0147
:102E50002AE00E943B169801280F391F04C02AE07F
:102E60000E943B169C01C901DF91CF911F910F91E8
:102E7000FF90EF90DF90CF900895CF92DF92EF9286
:102E8000FF920F931F936C017B019A010027F7FCBF
:102E90000095102FB801A7010E94FD168C01C601F4
:102EA0000E94FF15080F191FC8011F910F91FF9075
:102EB000EF90DF90CF9008950E941F1608951F9203
:102EC0000F920FB60F9211242F933F938F939F93DE
:102ED000AF93BF938091290490912A04A0912B0471
:102EE000B0912C0430912D040196A11DB11D232F0A
:102EF0002D5F2D3720F02D570196A11DB11D209378
:102F00002D048093290490932A04A0932B04B0935A
:102F10002C048091250490912604A0912704B0915F
:102F200028040196A11DB11D8093250490932604C9
:102F3000A0932704B0932804BF91AF919F918F91E4
:102F40003F912F910F900FBE0F901F90189578947E
:102F500084B5826084BD84B5816084BD85B582609E
:102F600085BD85B5816085BDEEE6F0E0808181603C
:102F70008083E1E8F0E0108280818260808380813C
:102F800081608083E0E8F0E0808181608083E1EB14
:102F9000F0E0808184608083E0EBF0E080818160FC
:102FA0008083EAE7F0E080818460808380818260B2
:102FB000808380818160808380818068808310929B
:102FC000C1000895CF93DF93482F50E0CA01865681
:102FD0009F4FFC0134914A575F4FFA018491882337
:102FE00069F190E0880F991FFC01E859FF4FA59106
:102FF000B491FC01EE58FF4FC591D491662351F472
:103000002FB7F8948C91932F909589238C93888176
:1030100089230BC0623061F42FB7F8948C91932F01
:10302000909589238C938881832B88832FBF06C03A
:103030009FB7F8948C91832B8C939FBFDF91CF9196
:103040000895682F70E0CB0182559F4FFC012491B9
:10305000CB0186569F4FFC0144916A577F4FFB017D
:103060009491992319F420E030E03CC0222351F1DF
:10307000233071F0243028F42130A1F0223011F5F2
:1030800014C02630B1F02730C1F02430D9F404C088
:10309000809180008F7703C0809180008F7D809326
:1030A000800010C084B58F7702C084B58F7D84BD49
:1030B00009C08091B0008F7703C08091B0008F7DF0
:1030C0008093B000892F90E0880F991F84589F4FFC
:1030D000FC01A591B4918C9120E030E0842311F0A3
:1030E00021E030E0C9010895629FD001739FF00193
:1030F000829FE00DF11D649FE00DF11D929FF00D88
:10310000839FF00D749FF00D659FF00D9927729FBE
:10311000B00DE11DF91F639FB00DE11DF91FBD0149
:10312000CF0111240895A1E21A2EAA1BBB1BFD0199
:103130000DC0AA1FBB1FEE1FFF1FA217B307E40796
:10314000F50720F0A21BB30BE40BF50B661F771FEE
:10315000881F991F1A9469F76095709580959095CE
:103160009B01AC01BD01CF0108952F923F924F9278
:103170005F926F927F928F929F92AF92BF92CF9207
:10318000DF92EF92FF920F931F93CF93DF93CDB710
:10319000DEB7CA1BDB0B0FB6F894DEBF0FBECDBF88
:1031A00009942A88398848885F846E847D848C8459
:1031B0009B84AA84B984C884DF80EE80FD800C8162
:1031C0001B81AA81B981CE0FD11D0FB6F894DEBF45
:1031D0000FBECDBFED010895EE0FFF1F0590F491D6
:0831E000E02D0994F894FFCFE3
:1031E80041677265656D656E743A20004E4543000F
:1031F800534F4E59005243350052433600457272C0
:103208006F722C436865636B207468652072656D06
:103218006F7465206C6F636174696F6E20616E6492
:10322800207374617920617761792066726F6D20EF
:10323800746865206C6967687400426974733A2021
:1032480000536F757263653A20004B657920436FB0
:1032580064653A200053797374656D20436F646523
:103268003A200000000000000000000001020203F4
:103278000303030404040404040404050505050504
:1032880005050505050505050505050606060606E1
:1032980006060606060606060606060606060606C6
:1032A80006060606060606060606060707070707B1
:1032B8000707070707070707070707070707070796
:1032C8000707070707070707070707070707070786
:1032D8000707070707070707070707070707070776
:1032E8000707070707070707070707080808080861
:1032F8000808080808080808080808080808080846
:103308000808080808080808080808080808080835
:103318000808080808080808080808080808080825
:103328000808080808080808080808080808080815
:103338000808080808080808080808080808080805
:1033480008080808080808080808080808080808F5
:1033580008080808080808080808080808080808E5
:1033680008080808080808080808080B00000000F2
:0E337800003015D515C614F714D71420150013
:00000001FF
